{
  "_format": "hh-sol-artifact-1",
  "contractName": "BlockCats",
  "sourceName": "contracts/BlockCats.sol",
  "abi": [
    {
      "inputs": [],
      "stateMutability": "nonpayable",
      "type": "constructor"
    },
    {
      "anonymous": false,
      "inputs": [
        {
          "indexed": true,
          "internalType": "address",
          "name": "owner",
          "type": "address"
        },
        {
          "indexed": true,
          "internalType": "address",
          "name": "approved",
          "type": "address"
        },
        {
          "indexed": true,
          "internalType": "uint256",
          "name": "tokenId",
          "type": "uint256"
        }
      ],
      "name": "Approval",
      "type": "event"
    },
    {
      "anonymous": false,
      "inputs": [
        {
          "indexed": true,
          "internalType": "address",
          "name": "owner",
          "type": "address"
        },
        {
          "indexed": true,
          "internalType": "address",
          "name": "operator",
          "type": "address"
        },
        {
          "indexed": false,
          "internalType": "bool",
          "name": "approved",
          "type": "bool"
        }
      ],
      "name": "ApprovalForAll",
      "type": "event"
    },
    {
      "anonymous": false,
      "inputs": [
        {
          "indexed": true,
          "internalType": "address",
          "name": "from",
          "type": "address"
        },
        {
          "indexed": true,
          "internalType": "address",
          "name": "to",
          "type": "address"
        },
        {
          "indexed": true,
          "internalType": "uint256",
          "name": "tokenId",
          "type": "uint256"
        }
      ],
      "name": "Transfer",
      "type": "event"
    },
    {
      "inputs": [
        {
          "internalType": "address",
          "name": "to",
          "type": "address"
        },
        {
          "internalType": "uint256",
          "name": "tokenId",
          "type": "uint256"
        }
      ],
      "name": "approve",
      "outputs": [],
      "stateMutability": "nonpayable",
      "type": "function"
    },
    {
      "inputs": [
        {
          "internalType": "address",
          "name": "owner",
          "type": "address"
        }
      ],
      "name": "balanceOf",
      "outputs": [
        {
          "internalType": "uint256",
          "name": "",
          "type": "uint256"
        }
      ],
      "stateMutability": "view",
      "type": "function"
    },
    {
      "inputs": [
        {
          "internalType": "uint256",
          "name": "tokenId",
          "type": "uint256"
        }
      ],
      "name": "getApproved",
      "outputs": [
        {
          "internalType": "address",
          "name": "",
          "type": "address"
        }
      ],
      "stateMutability": "view",
      "type": "function"
    },
    {
      "inputs": [
        {
          "internalType": "address",
          "name": "owner",
          "type": "address"
        },
        {
          "internalType": "address",
          "name": "operator",
          "type": "address"
        }
      ],
      "name": "isApprovedForAll",
      "outputs": [
        {
          "internalType": "bool",
          "name": "",
          "type": "bool"
        }
      ],
      "stateMutability": "view",
      "type": "function"
    },
    {
      "inputs": [],
      "name": "mintNFT",
      "outputs": [],
      "stateMutability": "nonpayable",
      "type": "function"
    },
    {
      "inputs": [],
      "name": "name",
      "outputs": [
        {
          "internalType": "string",
          "name": "",
          "type": "string"
        }
      ],
      "stateMutability": "view",
      "type": "function"
    },
    {
      "inputs": [
        {
          "internalType": "uint256",
          "name": "tokenId",
          "type": "uint256"
        }
      ],
      "name": "ownerOf",
      "outputs": [
        {
          "internalType": "address",
          "name": "",
          "type": "address"
        }
      ],
      "stateMutability": "view",
      "type": "function"
    },
    {
      "inputs": [
        {
          "internalType": "address",
          "name": "from",
          "type": "address"
        },
        {
          "internalType": "address",
          "name": "to",
          "type": "address"
        },
        {
          "internalType": "uint256",
          "name": "tokenId",
          "type": "uint256"
        }
      ],
      "name": "safeTransferFrom",
      "outputs": [],
      "stateMutability": "nonpayable",
      "type": "function"
    },
    {
      "inputs": [
        {
          "internalType": "address",
          "name": "from",
          "type": "address"
        },
        {
          "internalType": "address",
          "name": "to",
          "type": "address"
        },
        {
          "internalType": "uint256",
          "name": "tokenId",
          "type": "uint256"
        },
        {
          "internalType": "bytes",
          "name": "_data",
          "type": "bytes"
        }
      ],
      "name": "safeTransferFrom",
      "outputs": [],
      "stateMutability": "nonpayable",
      "type": "function"
    },
    {
      "inputs": [
        {
          "internalType": "address",
          "name": "operator",
          "type": "address"
        },
        {
          "internalType": "bool",
          "name": "approved",
          "type": "bool"
        }
      ],
      "name": "setApprovalForAll",
      "outputs": [],
      "stateMutability": "nonpayable",
      "type": "function"
    },
    {
      "inputs": [
        {
          "internalType": "bytes4",
          "name": "interfaceId",
          "type": "bytes4"
        }
      ],
      "name": "supportsInterface",
      "outputs": [
        {
          "internalType": "bool",
          "name": "",
          "type": "bool"
        }
      ],
      "stateMutability": "view",
      "type": "function"
    },
    {
      "inputs": [],
      "name": "symbol",
      "outputs": [
        {
          "internalType": "string",
          "name": "",
          "type": "string"
        }
      ],
      "stateMutability": "view",
      "type": "function"
    },
    {
      "inputs": [
        {
          "internalType": "uint256",
          "name": "tokenId",
          "type": "uint256"
        }
      ],
      "name": "tokenURI",
      "outputs": [
        {
          "internalType": "string",
          "name": "",
          "type": "string"
        }
      ],
      "stateMutability": "view",
      "type": "function"
    },
    {
      "inputs": [
        {
          "internalType": "address",
          "name": "from",
          "type": "address"
        },
        {
          "internalType": "address",
          "name": "to",
          "type": "address"
        },
        {
          "internalType": "uint256",
          "name": "tokenId",
          "type": "uint256"
        }
      ],
      "name": "transferFrom",
      "outputs": [],
      "stateMutability": "nonpayable",
      "type": "function"
    }
  ],
  "bytecode": "0x60806040523480156200001157600080fd5b506040518060400160405280600981526020017f426c6f636b4361747300000000000000000000000000000000000000000000008152506040518060400160405280600381526020017f4243540000000000000000000000000000000000000000000000000000000000815250816000908051906020019062000096929190620000b8565b508060019080519060200190620000af929190620000b8565b505050620001cd565b828054620000c69062000168565b90600052602060002090601f016020900481019282620000ea576000855562000136565b82601f106200010557805160ff191683800117855562000136565b8280016001018555821562000136579182015b828111156200013557825182559160200191906001019062000118565b5b50905062000145919062000149565b5090565b5b80821115620001645760008160009055506001016200014a565b5090565b600060028204905060018216806200018157607f821691505b602082108114156200019857620001976200019e565b5b50919050565b7f4e487b7100000000000000000000000000000000000000000000000000000000600052602260045260246000fd5b612f7580620001dd6000396000f3fe608060405234801561001057600080fd5b50600436106100ea5760003560e01c80636352211e1161008c578063a22cb46511610066578063a22cb46514610249578063b88d4fde14610265578063c87b56dd14610281578063e985e9c5146102b1576100ea565b80636352211e146101cb57806370a08231146101fb57806395d89b411461022b576100ea565b8063095ea7b3116100c8578063095ea7b31461016d57806314f710fe1461018957806323b872dd1461019357806342842e0e146101af576100ea565b806301ffc9a7146100ef57806306fdde031461011f578063081812fc1461013d575b600080fd5b61010960048036038101906101049190611dca565b6102e1565b60405161011691906122a9565b60405180910390f35b6101276103c3565b60405161013491906122c4565b60405180910390f35b61015760048036038101906101529190611e1c565b610455565b6040516101649190612242565b60405180910390f35b61018760048036038101906101829190611d8e565b6104da565b005b6101916105f2565b005b6101ad60048036038101906101a89190611c88565b61066b565b005b6101c960048036038101906101c49190611c88565b6106cb565b005b6101e560048036038101906101e09190611e1c565b6106eb565b6040516101f29190612242565b60405180910390f35b61021560048036038101906102109190611c23565b61079d565b60405161022291906124e6565b60405180910390f35b610233610855565b60405161024091906122c4565b60405180910390f35b610263600480360381019061025e9190611d52565b6108e7565b005b61027f600480360381019061027a9190611cd7565b6108fd565b005b61029b60048036038101906102969190611e1c565b61095f565b6040516102a891906122c4565b60405180910390f35b6102cb60048036038101906102c69190611c4c565b610ab1565b6040516102d891906122a9565b60405180910390f35b60007f80ac58cd000000000000000000000000000000000000000000000000000000007bffffffffffffffffffffffffffffffffffffffffffffffffffffffff1916827bffffffffffffffffffffffffffffffffffffffffffffffffffffffff191614806103ac57507f5b5e139f000000000000000000000000000000000000000000000000000000007bffffffffffffffffffffffffffffffffffffffffffffffffffffffff1916827bffffffffffffffffffffffffffffffffffffffffffffffffffffffff1916145b806103bc57506103bb82610b45565b5b9050919050565b6060600080546103d290612765565b80601f01602080910402602001604051908101604052809291908181526020018280546103fe90612765565b801561044b5780601f106104205761010080835404028352916020019161044b565b820191906000526020600020905b81548152906001019060200180831161042e57829003601f168201915b5050505050905090565b600061046082610baf565b61049f576040517f08c379a000000000000000000000000000000000000000000000000000000000815260040161049690612466565b60405180910390fd5b6004600083815260200190815260200160002060009054906101000a900473ffffffffffffffffffffffffffffffffffffffff169050919050565b60006104e5826106eb565b90508073ffffffffffffffffffffffffffffffffffffffff168373ffffffffffffffffffffffffffffffffffffffff161415610556576040517f08c379a000000000000000000000000000000000000000000000000000000000815260040161054d906124a6565b60405180910390fd5b8073ffffffffffffffffffffffffffffffffffffffff16610575610c1b565b73ffffffffffffffffffffffffffffffffffffffff1614806105a457506105a38161059e610c1b565b610ab1565b5b6105e3576040517f08c379a00000000000000000000000000000000000000000000000000000000081526004016105da906123a6565b60405180910390fd5b6105ed8383610c23565b505050565b60006105fe6007610cdc565b905061060a3382610cea565b600061063260405160200161061e906121f5565b604051602081830303815290604052610d08565b6040516020016106429190612220565b604051602081830303815290604052905061065d8282610eb3565b6106676007610f27565b5050565b61067c610676610c1b565b82610f3d565b6106bb576040517f08c379a00000000000000000000000000000000000000000000000000000000081526004016106b2906124c6565b60405180910390fd5b6106c683838361101b565b505050565b6106e6838383604051806020016040528060008152506108fd565b505050565b6000806002600084815260200190815260200160002060009054906101000a900473ffffffffffffffffffffffffffffffffffffffff169050600073ffffffffffffffffffffffffffffffffffffffff168173ffffffffffffffffffffffffffffffffffffffff161415610794576040517f08c379a000000000000000000000000000000000000000000000000000000000815260040161078b906123e6565b60405180910390fd5b80915050919050565b60008073ffffffffffffffffffffffffffffffffffffffff168273ffffffffffffffffffffffffffffffffffffffff16141561080e576040517f08c379a0000000000000000000000000000000000000000000000000000000008152600401610805906123c6565b60405180910390fd5b600360008373ffffffffffffffffffffffffffffffffffffffff1673ffffffffffffffffffffffffffffffffffffffff168152602001908152602001600020549050919050565b60606001805461086490612765565b80601f016020809104026020016040519081016040528092919081815260200182805461089090612765565b80156108dd5780601f106108b2576101008083540402835291602001916108dd565b820191906000526020600020905b8154815290600101906020018083116108c057829003601f168201915b5050505050905090565b6108f96108f2610c1b565b8383611282565b5050565b61090e610908610c1b565b83610f3d565b61094d576040517f08c379a0000000000000000000000000000000000000000000000000000000008152600401610944906124c6565b60405180910390fd5b610959848484846113ef565b50505050565b606061096a82610baf565b6109a9576040517f08c379a00000000000000000000000000000000000000000000000000000000081526004016109a090612446565b60405180910390fd5b60006006600084815260200190815260200160002080546109c990612765565b80601f01602080910402602001604051908101604052809291908181526020018280546109f590612765565b8015610a425780601f10610a1757610100808354040283529160200191610a42565b820191906000526020600020905b815481529060010190602001808311610a2557829003601f168201915b505050505090506000610a5361144b565b9050600081511415610a69578192505050610aac565b600082511115610a9e578082604051602001610a869291906121d1565b60405160208183030381529060405292505050610aac565b610aa784611462565b925050505b919050565b6000600560008473ffffffffffffffffffffffffffffffffffffffff1673ffffffffffffffffffffffffffffffffffffffff16815260200190815260200160002060008373ffffffffffffffffffffffffffffffffffffffff1673ffffffffffffffffffffffffffffffffffffffff16815260200190815260200160002060009054906101000a900460ff16905092915050565b60007f01ffc9a7000000000000000000000000000000000000000000000000000000007bffffffffffffffffffffffffffffffffffffffffffffffffffffffff1916827bffffffffffffffffffffffffffffffffffffffffffffffffffffffff1916149050919050565b60008073ffffffffffffffffffffffffffffffffffffffff166002600084815260200190815260200160002060009054906101000a900473ffffffffffffffffffffffffffffffffffffffff1673ffffffffffffffffffffffffffffffffffffffff1614159050919050565b600033905090565b816004600083815260200190815260200160002060006101000a81548173ffffffffffffffffffffffffffffffffffffffff021916908373ffffffffffffffffffffffffffffffffffffffff160217905550808273ffffffffffffffffffffffffffffffffffffffff16610c96836106eb565b73ffffffffffffffffffffffffffffffffffffffff167f8c5be1e5ebec7d5bd14f71427d1e84f3dd0314c0f7b2291e5b200ac8c7c3b92560405160405180910390a45050565b600081600001549050919050565b610d04828260405180602001604052806000815250611509565b5050565b6060600082511415610d2b57604051806020016040528060008152509050610eae565b6000604051806060016040528060408152602001612f006040913990506000600360028551610d5a919061259a565b610d6491906125f0565b6004610d709190612621565b90506000602082610d81919061259a565b67ffffffffffffffff811115610dc0577f4e487b7100000000000000000000000000000000000000000000000000000000600052604160045260246000fd5b6040519080825280601f01601f191660200182016040528015610df25781602001600182028036833780820191505090505b509050818152600183018586518101602084015b81831015610e6d576003830192508251603f8160121c1685015160f81b8252600182019150603f81600c1c1685015160f81b8252600182019150603f8160061c1685015160f81b8252600182019150603f811685015160f81b825260018201915050610e06565b600389510660018114610e875760028114610e9757610ea2565b613d3d60f01b6002830352610ea2565b603d60f81b60018303525b50505050508093505050505b919050565b610ebc82610baf565b610efb576040517f08c379a0000000000000000000000000000000000000000000000000000000008152600401610ef290612406565b60405180910390fd5b80600660008481526020019081526020016000209080519060200190610f22929190611aaf565b505050565b6001816000016000828254019250508190555050565b6000610f4882610baf565b610f87576040517f08c379a0000000000000000000000000000000000000000000000000000000008152600401610f7e90612386565b60405180910390fd5b6000610f92836106eb565b90508073ffffffffffffffffffffffffffffffffffffffff168473ffffffffffffffffffffffffffffffffffffffff16148061100157508373ffffffffffffffffffffffffffffffffffffffff16610fe984610455565b73ffffffffffffffffffffffffffffffffffffffff16145b8061101257506110118185610ab1565b5b91505092915050565b8273ffffffffffffffffffffffffffffffffffffffff1661103b826106eb565b73ffffffffffffffffffffffffffffffffffffffff1614611091576040517f08c379a000000000000000000000000000000000000000000000000000000000815260040161108890612306565b60405180910390fd5b600073ffffffffffffffffffffffffffffffffffffffff168273ffffffffffffffffffffffffffffffffffffffff161415611101576040517f08c379a00000000000000000000000000000000000000000000000000000000081526004016110f890612346565b60405180910390fd5b61110c838383611564565b611117600082610c23565b6001600360008573ffffffffffffffffffffffffffffffffffffffff1673ffffffffffffffffffffffffffffffffffffffff1681526020019081526020016000206000828254611167919061267b565b925050819055506001600360008473ffffffffffffffffffffffffffffffffffffffff1673ffffffffffffffffffffffffffffffffffffffff16815260200190815260200160002060008282546111be919061259a565b92505081905550816002600083815260200190815260200160002060006101000a81548173ffffffffffffffffffffffffffffffffffffffff021916908373ffffffffffffffffffffffffffffffffffffffff160217905550808273ffffffffffffffffffffffffffffffffffffffff168473ffffffffffffffffffffffffffffffffffffffff167fddf252ad1be2c89b69c2b068fc378daa952ba7f163c4a11628f55a4df523b3ef60405160405180910390a461127d838383611569565b505050565b8173ffffffffffffffffffffffffffffffffffffffff168373ffffffffffffffffffffffffffffffffffffffff1614156112f1576040517f08c379a00000000000000000000000000000000000000000000000000000000081526004016112e890612366565b60405180910390fd5b80600560008573ffffffffffffffffffffffffffffffffffffffff1673ffffffffffffffffffffffffffffffffffffffff16815260200190815260200160002060008473ffffffffffffffffffffffffffffffffffffffff1673ffffffffffffffffffffffffffffffffffffffff16815260200190815260200160002060006101000a81548160ff0219169083151502179055508173ffffffffffffffffffffffffffffffffffffffff168373ffffffffffffffffffffffffffffffffffffffff167f17307eab39ab6107e8899845ad3d59bd9653f200f220920489ca2b5937696c31836040516113e291906122a9565b60405180910390a3505050565b6113fa84848461101b565b6114068484848461156e565b611445576040517f08c379a000000000000000000000000000000000000000000000000000000000815260040161143c906122e6565b60405180910390fd5b50505050565b606060405180602001604052806000815250905090565b606061146d82610baf565b6114ac576040517f08c379a00000000000000000000000000000000000000000000000000000000081526004016114a390612486565b60405180910390fd5b60006114b661144b565b905060008151116114d65760405180602001604052806000815250611501565b806114e084611705565b6040516020016114f19291906121d1565b6040516020818303038152906040525b915050919050565b61151383836118b2565b611520600084848461156e565b61155f576040517f08c379a0000000000000000000000000000000000000000000000000000000008152600401611556906122e6565b60405180910390fd5b505050565b505050565b505050565b600061158f8473ffffffffffffffffffffffffffffffffffffffff16611a8c565b156116f8578373ffffffffffffffffffffffffffffffffffffffff1663150b7a026115b8610c1b565b8786866040518563ffffffff1660e01b81526004016115da949392919061225d565b602060405180830381600087803b1580156115f457600080fd5b505af192505050801561162557506040513d601f19601f820116820180604052508101906116229190611df3565b60015b6116a8573d8060008114611655576040519150601f19603f3d011682016040523d82523d6000602084013e61165a565b606091505b506000815114156116a0576040517f08c379a0000000000000000000000000000000000000000000000000000000008152600401611697906122e6565b60405180910390fd5b805181602001fd5b63150b7a0260e01b7bffffffffffffffffffffffffffffffffffffffffffffffffffffffff1916817bffffffffffffffffffffffffffffffffffffffffffffffffffffffff1916149150506116fd565b600190505b949350505050565b6060600082141561174d576040518060400160405280600181526020017f300000000000000000000000000000000000000000000000000000000000000081525090506118ad565b600082905060005b6000821461177f578080611768906127c8565b915050600a8261177891906125f0565b9150611755565b60008167ffffffffffffffff8111156117c1577f4e487b7100000000000000000000000000000000000000000000000000000000600052604160045260246000fd5b6040519080825280601f01601f1916602001820160405280156117f35781602001600182028036833780820191505090505b5090505b600085146118a65760018261180c919061267b565b9150600a8561181b9190612811565b6030611827919061259a565b60f81b818381518110611863577f4e487b7100000000000000000000000000000000000000000000000000000000600052603260045260246000fd5b60200101907effffffffffffffffffffffffffffffffffffffffffffffffffffffffffffff1916908160001a905350600a8561189f91906125f0565b94506117f7565b8093505050505b919050565b600073ffffffffffffffffffffffffffffffffffffffff168273ffffffffffffffffffffffffffffffffffffffff161415611922576040517f08c379a000000000000000000000000000000000000000000000000000000000815260040161191990612426565b60405180910390fd5b61192b81610baf565b1561196b576040517f08c379a000000000000000000000000000000000000000000000000000000000815260040161196290612326565b60405180910390fd5b61197760008383611564565b6001600360008473ffffffffffffffffffffffffffffffffffffffff1673ffffffffffffffffffffffffffffffffffffffff16815260200190815260200160002060008282546119c7919061259a565b92505081905550816002600083815260200190815260200160002060006101000a81548173ffffffffffffffffffffffffffffffffffffffff021916908373ffffffffffffffffffffffffffffffffffffffff160217905550808273ffffffffffffffffffffffffffffffffffffffff16600073ffffffffffffffffffffffffffffffffffffffff167fddf252ad1be2c89b69c2b068fc378daa952ba7f163c4a11628f55a4df523b3ef60405160405180910390a4611a8860008383611569565b5050565b6000808273ffffffffffffffffffffffffffffffffffffffff163b119050919050565b828054611abb90612765565b90600052602060002090601f016020900481019282611add5760008555611b24565b82601f10611af657805160ff1916838001178555611b24565b82800160010185558215611b24579182015b82811115611b23578251825591602001919060010190611b08565b5b509050611b319190611b35565b5090565b5b80821115611b4e576000816000905550600101611b36565b5090565b6000611b65611b6084612526565b612501565b905082815260208101848484011115611b7d57600080fd5b611b88848285612723565b509392505050565b600081359050611b9f81612ea3565b92915050565b600081359050611bb481612eba565b92915050565b600081359050611bc981612ed1565b92915050565b600081519050611bde81612ed1565b92915050565b600082601f830112611bf557600080fd5b8135611c05848260208601611b52565b91505092915050565b600081359050611c1d81612ee8565b92915050565b600060208284031215611c3557600080fd5b6000611c4384828501611b90565b91505092915050565b60008060408385031215611c5f57600080fd5b6000611c6d85828601611b90565b9250506020611c7e85828601611b90565b9150509250929050565b600080600060608486031215611c9d57600080fd5b6000611cab86828701611b90565b9350506020611cbc86828701611b90565b9250506040611ccd86828701611c0e565b9150509250925092565b60008060008060808587031215611ced57600080fd5b6000611cfb87828801611b90565b9450506020611d0c87828801611b90565b9350506040611d1d87828801611c0e565b925050606085013567ffffffffffffffff811115611d3a57600080fd5b611d4687828801611be4565b91505092959194509250565b60008060408385031215611d6557600080fd5b6000611d7385828601611b90565b9250506020611d8485828601611ba5565b9150509250929050565b60008060408385031215611da157600080fd5b6000611daf85828601611b90565b9250506020611dc085828601611c0e565b9150509250929050565b600060208284031215611ddc57600080fd5b6000611dea84828501611bba565b91505092915050565b600060208284031215611e0557600080fd5b6000611e1384828501611bcf565b91505092915050565b600060208284031215611e2e57600080fd5b6000611e3c84828501611c0e565b91505092915050565b611e4e816126af565b82525050565b611e5d816126c1565b82525050565b6000611e6e82612557565b611e78818561256d565b9350611e88818560208601612732565b611e91816128fe565b840191505092915050565b6000611ea782612562565b611eb1818561257e565b9350611ec1818560208601612732565b611eca816128fe565b840191505092915050565b6000611ee082612562565b611eea818561258f565b9350611efa818560208601612732565b80840191505092915050565b6000611f1360328361257e565b9150611f1e8261290f565b604082019050919050565b6000611f3660258361257e565b9150611f418261295e565b604082019050919050565b6000611f59601c8361257e565b9150611f64826129ad565b602082019050919050565b6000611f7c60248361257e565b9150611f87826129d6565b604082019050919050565b6000611f9f60198361257e565b9150611faa82612a25565b602082019050919050565b6000611fc2602c8361257e565b9150611fcd82612a4e565b604082019050919050565b6000611fe560388361257e565b9150611ff082612a9d565b604082019050919050565b600061200860408361258f565b915061201382612aec565b604082019050919050565b600061202b602a8361257e565b915061203682612b3b565b604082019050919050565b600061204e60298361257e565b915061205982612b8a565b604082019050919050565b6000612071602e8361257e565b915061207c82612bd9565b604082019050919050565b600061209460028361258f565b915061209f82612c28565b600282019050919050565b60006120b760208361257e565b91506120c282612c51565b602082019050919050565b60006120da60318361257e565b91506120e582612c7a565b604082019050919050565b60006120fd602c8361257e565b915061210882612cc9565b604082019050919050565b6000612120602f8361257e565b915061212b82612d18565b604082019050919050565b600061214360498361258f565b915061214e82612d67565b604982019050919050565b600061216660218361257e565b915061217182612ddc565b604082019050919050565b6000612189601d8361258f565b915061219482612e2b565b601d82019050919050565b60006121ac60318361257e565b91506121b782612e54565b604082019050919050565b6121cb81612719565b82525050565b60006121dd8285611ed5565b91506121e98284611ed5565b91508190509392505050565b600061220082611ffb565b915061220b82612136565b915061221682612087565b9150819050919050565b600061222b8261217c565b91506122378284611ed5565b915081905092915050565b60006020820190506122576000830184611e45565b92915050565b60006080820190506122726000830187611e45565b61227f6020830186611e45565b61228c60408301856121c2565b818103606083015261229e8184611e63565b905095945050505050565b60006020820190506122be6000830184611e54565b92915050565b600060208201905081810360008301526122de8184611e9c565b905092915050565b600060208201905081810360008301526122ff81611f06565b9050919050565b6000602082019050818103600083015261231f81611f29565b9050919050565b6000602082019050818103600083015261233f81611f4c565b9050919050565b6000602082019050818103600083015261235f81611f6f565b9050919050565b6000602082019050818103600083015261237f81611f92565b9050919050565b6000602082019050818103600083015261239f81611fb5565b9050919050565b600060208201905081810360008301526123bf81611fd8565b9050919050565b600060208201905081810360008301526123df8161201e565b9050919050565b600060208201905081810360008301526123ff81612041565b9050919050565b6000602082019050818103600083015261241f81612064565b9050919050565b6000602082019050818103600083015261243f816120aa565b9050919050565b6000602082019050818103600083015261245f816120cd565b9050919050565b6000602082019050818103600083015261247f816120f0565b9050919050565b6000602082019050818103600083015261249f81612113565b9050919050565b600060208201905081810360008301526124bf81612159565b9050919050565b600060208201905081810360008301526124df8161219f565b9050919050565b60006020820190506124fb60008301846121c2565b92915050565b600061250b61251c565b90506125178282612797565b919050565b6000604051905090565b600067ffffffffffffffff821115612541576125406128cf565b5b61254a826128fe565b9050602081019050919050565b600081519050919050565b600081519050919050565b600082825260208201905092915050565b600082825260208201905092915050565b600081905092915050565b60006125a582612719565b91506125b083612719565b9250827fffffffffffffffffffffffffffffffffffffffffffffffffffffffffffffffff038211156125e5576125e4612842565b5b828201905092915050565b60006125fb82612719565b915061260683612719565b92508261261657612615612871565b5b828204905092915050565b600061262c82612719565b915061263783612719565b9250817fffffffffffffffffffffffffffffffffffffffffffffffffffffffffffffffff04831182151516156126705761266f612842565b5b828202905092915050565b600061268682612719565b915061269183612719565b9250828210156126a4576126a3612842565b5b828203905092915050565b60006126ba826126f9565b9050919050565b60008115159050919050565b60007fffffffff0000000000000000000000000000000000000000000000000000000082169050919050565b600073ffffffffffffffffffffffffffffffffffffffff82169050919050565b6000819050919050565b82818337600083830152505050565b60005b83811015612750578082015181840152602081019050612735565b8381111561275f576000848401525b50505050565b6000600282049050600182168061277d57607f821691505b60208210811415612791576127906128a0565b5b50919050565b6127a0826128fe565b810181811067ffffffffffffffff821117156127bf576127be6128cf565b5b80604052505050565b60006127d382612719565b91507fffffffffffffffffffffffffffffffffffffffffffffffffffffffffffffffff82141561280657612805612842565b5b600182019050919050565b600061281c82612719565b915061282783612719565b92508261283757612836612871565b5b828206905092915050565b7f4e487b7100000000000000000000000000000000000000000000000000000000600052601160045260246000fd5b7f4e487b7100000000000000000000000000000000000000000000000000000000600052601260045260246000fd5b7f4e487b7100000000000000000000000000000000000000000000000000000000600052602260045260246000fd5b7f4e487b7100000000000000000000000000000000000000000000000000000000600052604160045260246000fd5b6000601f19601f8301169050919050565b7f4552433732313a207472616e7366657220746f206e6f6e20455243373231526560008201527f63656976657220696d706c656d656e7465720000000000000000000000000000602082015250565b7f4552433732313a207472616e736665722066726f6d20696e636f72726563742060008201527f6f776e6572000000000000000000000000000000000000000000000000000000602082015250565b7f4552433732313a20746f6b656e20616c7265616479206d696e74656400000000600082015250565b7f4552433732313a207472616e7366657220746f20746865207a65726f2061646460008201527f7265737300000000000000000000000000000000000000000000000000000000602082015250565b7f4552433732313a20617070726f766520746f2063616c6c657200000000000000600082015250565b7f4552433732313a206f70657261746f7220717565727920666f72206e6f6e657860008201527f697374656e7420746f6b656e0000000000000000000000000000000000000000602082015250565b7f4552433732313a20617070726f76652063616c6c6572206973206e6f74206f7760008201527f6e6572206e6f7220617070726f76656420666f7220616c6c0000000000000000602082015250565b7f7b226e616d65223a202256616c6f222c20226465736372697074696f6e223a2060008201527f22412076616c4e465420636f6c6c656374696f6e222c2022696d616765223a22602082015250565b7f4552433732313a2062616c616e636520717565727920666f7220746865207a6560008201527f726f206164647265737300000000000000000000000000000000000000000000602082015250565b7f4552433732313a206f776e657220717565727920666f72206e6f6e657869737460008201527f656e7420746f6b656e0000000000000000000000000000000000000000000000602082015250565b7f45524337323155524953746f726167653a2055524920736574206f66206e6f6e60008201527f6578697374656e7420746f6b656e000000000000000000000000000000000000602082015250565b7f227d000000000000000000000000000000000000000000000000000000000000600082015250565b7f4552433732313a206d696e7420746f20746865207a65726f2061646472657373600082015250565b7f45524337323155524953746f726167653a2055524920717565727920666f722060008201527f6e6f6e6578697374656e7420746f6b656e000000000000000000000000000000602082015250565b7f4552433732313a20617070726f76656420717565727920666f72206e6f6e657860008201527f697374656e7420746f6b656e0000000000000000000000000000000000000000602082015250565b7f4552433732314d657461646174613a2055524920717565727920666f72206e6f60008201527f6e6578697374656e7420746f6b656e0000000000000000000000000000000000602082015250565b7f68747470733a2f2f697066732e696f2f697066732f516d61416a454a6e76737a60008201527f346e386f65566a6d4548676f6753456578463879516f71416d46395a4c48394460208201527f6633752f312e7376670000000000000000000000000000000000000000000000604082015250565b7f4552433732313a20617070726f76616c20746f2063757272656e74206f776e6560008201527f7200000000000000000000000000000000000000000000000000000000000000602082015250565b7f646174613a6170706c69636174696f6e2f6a736f6e3b6261736536342c000000600082015250565b7f4552433732313a207472616e736665722063616c6c6572206973206e6f74206f60008201527f776e6572206e6f7220617070726f766564000000000000000000000000000000602082015250565b612eac816126af565b8114612eb757600080fd5b50565b612ec3816126c1565b8114612ece57600080fd5b50565b612eda816126cd565b8114612ee557600080fd5b50565b612ef181612719565b8114612efc57600080fd5b5056fe4142434445464748494a4b4c4d4e4f505152535455565758595a6162636465666768696a6b6c6d6e6f707172737475767778797a303132333435363738392b2fa2646970667358221220c9906b0b68983e262a15e7a7ca43e37ec885d11767ff9d3768c7d155de299c4b64736f6c63430008040033",
  "linkReferences": {},
  "deployedLinkReferences": {}
}